{
  "contractName": "Voting",
  "abi": [
    {
      "inputs": [],
      "stateMutability": "nonpayable",
      "type": "constructor"
    },
    {
      "anonymous": false,
      "inputs": [
        {
          "indexed": false,
          "internalType": "uint256",
          "name": "id",
          "type": "uint256"
        },
        {
          "indexed": false,
          "internalType": "string",
          "name": "name",
          "type": "string"
        },
        {
          "indexed": false,
          "internalType": "uint256",
          "name": "voteCount",
          "type": "uint256"
        }
      ],
      "name": "CandidateAdded",
      "type": "event"
    },
    {
      "anonymous": false,
      "inputs": [
        {
          "indexed": false,
          "internalType": "uint256",
          "name": "candidateId",
          "type": "uint256"
        },
        {
          "indexed": false,
          "internalType": "address",
          "name": "voter",
          "type": "address"
        }
      ],
      "name": "VoteCasted",
      "type": "event"
    },
    {
      "inputs": [
        {
          "internalType": "uint256",
          "name": "",
          "type": "uint256"
        }
      ],
      "name": "candidates",
      "outputs": [
        {
          "internalType": "uint256",
          "name": "id",
          "type": "uint256"
        },
        {
          "internalType": "string",
          "name": "name",
          "type": "string"
        },
        {
          "internalType": "uint256",
          "name": "voteCount",
          "type": "uint256"
        }
      ],
      "stateMutability": "view",
      "type": "function"
    },
    {
      "inputs": [],
      "name": "candidatesCount",
      "outputs": [
        {
          "internalType": "uint256",
          "name": "",
          "type": "uint256"
        }
      ],
      "stateMutability": "view",
      "type": "function"
    },
    {
      "inputs": [
        {
          "internalType": "address",
          "name": "",
          "type": "address"
        }
      ],
      "name": "hasVoted",
      "outputs": [
        {
          "internalType": "bool",
          "name": "",
          "type": "bool"
        }
      ],
      "stateMutability": "view",
      "type": "function"
    },
    {
      "inputs": [],
      "name": "owner",
      "outputs": [
        {
          "internalType": "address",
          "name": "",
          "type": "address"
        }
      ],
      "stateMutability": "view",
      "type": "function"
    },
    {
      "inputs": [],
      "name": "votingActive",
      "outputs": [
        {
          "internalType": "bool",
          "name": "",
          "type": "bool"
        }
      ],
      "stateMutability": "view",
      "type": "function"
    },
    {
      "inputs": [
        {
          "internalType": "string",
          "name": "name",
          "type": "string"
        }
      ],
      "name": "addCandidate",
      "outputs": [],
      "stateMutability": "nonpayable",
      "type": "function"
    },
    {
      "inputs": [],
      "name": "initializeCandidates",
      "outputs": [],
      "stateMutability": "nonpayable",
      "type": "function"
    },
    {
      "inputs": [],
      "name": "getAllCandidates",
      "outputs": [
        {
          "components": [
            {
              "internalType": "uint256",
              "name": "id",
              "type": "uint256"
            },
            {
              "internalType": "string",
              "name": "name",
              "type": "string"
            },
            {
              "internalType": "uint256",
              "name": "voteCount",
              "type": "uint256"
            }
          ],
          "internalType": "struct Voting.Candidate[]",
          "name": "",
          "type": "tuple[]"
        }
      ],
      "stateMutability": "view",
      "type": "function"
    },
    {
      "inputs": [],
      "name": "enableVoting",
      "outputs": [],
      "stateMutability": "nonpayable",
      "type": "function"
    },
    {
      "inputs": [],
      "name": "disableVoting",
      "outputs": [],
      "stateMutability": "nonpayable",
      "type": "function"
    },
    {
      "inputs": [
        {
          "internalType": "uint256",
          "name": "candidateId",
          "type": "uint256"
        }
      ],
      "name": "vote",
      "outputs": [],
      "stateMutability": "nonpayable",
      "type": "function"
    }
  ],
  "bytecode": "0x6080604052348015600e575f80fd5b503360035f6101000a81548173ffffffffffffffffffffffffffffffffffffffff021916908373ffffffffffffffffffffffffffffffffffffffff1602179055506001600360146101000a81548160ff0219169083151502179055506115e7806100775f395ff3fe608060405234801561000f575f80fd5b50600436106100b7575f3560e01c80633477ee2e1161007f5780637c89c4e6116100595780637c89c4e6146101b95780638da5cb5b146101c3578063eb4439fb146101e1576100b7565b80633477ee2e1461014d578063408e27271461017f578063462e91ec1461019d576100b7565b80630121b93f146100bb57806304cd1819146100d757806309eef43e146100e15780632d35a8a2146101115780632e6997fe1461012f575b5f80fd5b6100d560048036038101906100d09190610a88565b6101eb565b005b6100df6103cf565b005b6100fb60048036038101906100f69190610b0d565b61047a565b6040516101089190610b52565b60405180910390f35b610119610497565b6040516101269190610b7a565b60405180910390f35b61013761049d565b6040516101449190610d1a565b60405180910390f35b61016760048036038101906101629190610a88565b61060a565b60405161017693929190610d82565b60405180910390f35b6101876106b5565b6040516101949190610b52565b60405180910390f35b6101b760048036038101906101b29190610eea565b6106c8565b005b6101c1610809565b005b6101cb610954565b6040516101d89190610f40565b60405180910390f35b6101e9610979565b005b600360149054906101000a900460ff1661023a576040517f08c379a000000000000000000000000000000000000000000000000000000000815260040161023190610fa3565b60405180910390fd5b5f8111801561024b57506001548111155b61028a576040517f08c379a000000000000000000000000000000000000000000000000000000000815260040161028190611031565b60405180910390fd5b60025f3373ffffffffffffffffffffffffffffffffffffffff1673ffffffffffffffffffffffffffffffffffffffff1681526020019081526020015f205f9054906101000a900460ff1615610314576040517f08c379a000000000000000000000000000000000000000000000000000000000815260040161030b90611099565b60405180910390fd5b60015f808381526020019081526020015f206002015f82825461033791906110e4565b92505081905550600160025f3373ffffffffffffffffffffffffffffffffffffffff1673ffffffffffffffffffffffffffffffffffffffff1681526020019081526020015f205f6101000a81548160ff0219169083151502179055507fd8d46ecf72f6103ff400e47d1b5fdfe248d4ca34a4acd39f63fbe903c8f7e7bd81336040516103c4929190611117565b60405180910390a150565b60035f9054906101000a900473ffffffffffffffffffffffffffffffffffffffff1673ffffffffffffffffffffffffffffffffffffffff163373ffffffffffffffffffffffffffffffffffffffff161461045e576040517f08c379a0000000000000000000000000000000000000000000000000000000008152600401610455906111ae565b60405180910390fd5b5f600360146101000a81548160ff021916908315150217905550565b6002602052805f5260405f205f915054906101000a900460ff1681565b60015481565b60605f60015467ffffffffffffffff8111156104bc576104bb610dc6565b5b6040519080825280602002602001820160405280156104f557816020015b6104e2610a25565b8152602001906001900390816104da5790505b5090505f600190505b6001548111610602575f808281526020019081526020015f206040518060600160405290815f820154815260200160018201805461053b906111f9565b80601f0160208091040260200160405190810160405280929190818152602001828054610567906111f9565b80156105b25780601f10610589576101008083540402835291602001916105b2565b820191905f5260205f20905b81548152906001019060200180831161059557829003601f168201915b50505050508152602001600282015481525050826001836105d39190611229565b815181106105e4576105e361125c565b5b602002602001018190525080806105fa90611289565b9150506104fe565b508091505090565b5f602052805f5260405f205f91509050805f01549080600101805461062e906111f9565b80601f016020809104026020016040519081016040528092919081815260200182805461065a906111f9565b80156106a55780601f1061067c576101008083540402835291602001916106a5565b820191905f5260205f20905b81548152906001019060200180831161068857829003601f168201915b5050505050908060020154905083565b600360149054906101000a900460ff1681565b60035f9054906101000a900473ffffffffffffffffffffffffffffffffffffffff1673ffffffffffffffffffffffffffffffffffffffff163373ffffffffffffffffffffffffffffffffffffffff1614610757576040517f08c379a000000000000000000000000000000000000000000000000000000000815260040161074e906111ae565b60405180910390fd5b6001805f82825461076891906110e4565b92505081905550604051806060016040528060015481526020018281526020015f8152505f8060015481526020019081526020015f205f820151815f015560208201518160010190816107bb919061146d565b50604082015181600201559050507fc0a81c9aad7f882e7dd72db314924227026255cc5ad0164435df572dec8c804d600154825f6040516107fe93929190611575565b60405180910390a150565b60035f9054906101000a900473ffffffffffffffffffffffffffffffffffffffff1673ffffffffffffffffffffffffffffffffffffffff163373ffffffffffffffffffffffffffffffffffffffff1614610898576040517f08c379a000000000000000000000000000000000000000000000000000000000815260040161088f906111ae565b60405180910390fd5b6108d66040518060400160405280600a81526020017f5a61726120486f74616b000000000000000000000000000000000000000000008152506106c8565b6109146040518060400160405280600b81526020017f536861686964204b68616e0000000000000000000000000000000000000000008152506106c8565b6109526040518060400160405280600981526020017f536172612041726f6e00000000000000000000000000000000000000000000008152506106c8565b565b60035f9054906101000a900473ffffffffffffffffffffffffffffffffffffffff1681565b60035f9054906101000a900473ffffffffffffffffffffffffffffffffffffffff1673ffffffffffffffffffffffffffffffffffffffff163373ffffffffffffffffffffffffffffffffffffffff1614610a08576040517f08c379a00000000000000000000000000000000000000000000000000000000081526004016109ff906111ae565b60405180910390fd5b6001600360146101000a81548160ff021916908315150217905550565b60405180606001604052805f8152602001606081526020015f81525090565b5f604051905090565b5f80fd5b5f80fd5b5f819050919050565b610a6781610a55565b8114610a71575f80fd5b50565b5f81359050610a8281610a5e565b92915050565b5f60208284031215610a9d57610a9c610a4d565b5b5f610aaa84828501610a74565b91505092915050565b5f73ffffffffffffffffffffffffffffffffffffffff82169050919050565b5f610adc82610ab3565b9050919050565b610aec81610ad2565b8114610af6575f80fd5b50565b5f81359050610b0781610ae3565b92915050565b5f60208284031215610b2257610b21610a4d565b5b5f610b2f84828501610af9565b91505092915050565b5f8115159050919050565b610b4c81610b38565b82525050565b5f602082019050610b655f830184610b43565b92915050565b610b7481610a55565b82525050565b5f602082019050610b8d5f830184610b6b565b92915050565b5f81519050919050565b5f82825260208201905092915050565b5f819050602082019050919050565b610bc581610a55565b82525050565b5f81519050919050565b5f82825260208201905092915050565b8281835e5f83830152505050565b5f601f19601f8301169050919050565b5f610c0d82610bcb565b610c178185610bd5565b9350610c27818560208601610be5565b610c3081610bf3565b840191505092915050565b5f606083015f830151610c505f860182610bbc565b5060208301518482036020860152610c688282610c03565b9150506040830151610c7d6040860182610bbc565b508091505092915050565b5f610c938383610c3b565b905092915050565b5f602082019050919050565b5f610cb182610b93565b610cbb8185610b9d565b935083602082028501610ccd85610bad565b805f5b85811015610d085784840389528151610ce98582610c88565b9450610cf483610c9b565b925060208a01995050600181019050610cd0565b50829750879550505050505092915050565b5f6020820190508181035f830152610d328184610ca7565b905092915050565b5f82825260208201905092915050565b5f610d5482610bcb565b610d5e8185610d3a565b9350610d6e818560208601610be5565b610d7781610bf3565b840191505092915050565b5f606082019050610d955f830186610b6b565b8181036020830152610da78185610d4a565b9050610db66040830184610b6b565b949350505050565b5f80fd5b5f80fd5b7f4e487b71000000000000000000000000000000000000000000000000000000005f52604160045260245ffd5b610dfc82610bf3565b810181811067ffffffffffffffff82111715610e1b57610e1a610dc6565b5b80604052505050565b5f610e2d610a44565b9050610e398282610df3565b919050565b5f67ffffffffffffffff821115610e5857610e57610dc6565b5b610e6182610bf3565b9050602081019050919050565b828183375f83830152505050565b5f610e8e610e8984610e3e565b610e24565b905082815260208101848484011115610eaa57610ea9610dc2565b5b610eb5848285610e6e565b509392505050565b5f82601f830112610ed157610ed0610dbe565b5b8135610ee1848260208601610e7c565b91505092915050565b5f60208284031215610eff57610efe610a4d565b5b5f82013567ffffffffffffffff811115610f1c57610f1b610a51565b5b610f2884828501610ebd565b91505092915050565b610f3a81610ad2565b82525050565b5f602082019050610f535f830184610f31565b92915050565b7f566f74696e67206973206e6f74206163746976650000000000000000000000005f82015250565b5f610f8d601483610d3a565b9150610f9882610f59565b602082019050919050565b5f6020820190508181035f830152610fba81610f81565b9050919050565b7f496e76616c69642063616e6469646174652049443a204f7574206f662072616e5f8201527f6765000000000000000000000000000000000000000000000000000000000000602082015250565b5f61101b602283610d3a565b915061102682610fc1565b604082019050919050565b5f6020820190508181035f8301526110488161100f565b9050919050565b7f596f75206861766520616c726561647920766f7465642e0000000000000000005f82015250565b5f611083601783610d3a565b915061108e8261104f565b602082019050919050565b5f6020820190508181035f8301526110b081611077565b9050919050565b7f4e487b71000000000000000000000000000000000000000000000000000000005f52601160045260245ffd5b5f6110ee82610a55565b91506110f983610a55565b9250828201905080821115611111576111106110b7565b5b92915050565b5f60408201905061112a5f830185610b6b565b6111376020830184610f31565b9392505050565b7f4f6e6c792074686520636f6e7472616374206f776e65722063616e20706572665f8201527f6f726d207468697320616374696f6e0000000000000000000000000000000000602082015250565b5f611198602f83610d3a565b91506111a38261113e565b604082019050919050565b5f6020820190508181035f8301526111c58161118c565b9050919050565b7f4e487b71000000000000000000000000000000000000000000000000000000005f52602260045260245ffd5b5f600282049050600182168061121057607f821691505b602082108103611223576112226111cc565b5b50919050565b5f61123382610a55565b915061123e83610a55565b9250828203905081811115611256576112556110b7565b5b92915050565b7f4e487b71000000000000000000000000000000000000000000000000000000005f52603260045260245ffd5b5f61129382610a55565b91507fffffffffffffffffffffffffffffffffffffffffffffffffffffffffffffffff82036112c5576112c46110b7565b5b600182019050919050565b5f819050815f5260205f209050919050565b5f6020601f8301049050919050565b5f82821b905092915050565b5f6008830261132c7fffffffffffffffffffffffffffffffffffffffffffffffffffffffffffffffff826112f1565b61133686836112f1565b95508019841693508086168417925050509392505050565b5f819050919050565b5f61137161136c61136784610a55565b61134e565b610a55565b9050919050565b5f819050919050565b61138a83611357565b61139e61139682611378565b8484546112fd565b825550505050565b5f90565b6113b26113a6565b6113bd818484611381565b505050565b5b818110156113e0576113d55f826113aa565b6001810190506113c3565b5050565b601f821115611425576113f6816112d0565b6113ff846112e2565b8101602085101561140e578190505b61142261141a856112e2565b8301826113c2565b50505b505050565b5f82821c905092915050565b5f6114455f198460080261142a565b1980831691505092915050565b5f61145d8383611436565b9150826002028217905092915050565b61147682610bcb565b67ffffffffffffffff81111561148f5761148e610dc6565b5b61149982546111f9565b6114a48282856113e4565b5f60209050601f8311600181146114d5575f84156114c3578287015190505b6114cd8582611452565b865550611534565b601f1984166114e3866112d0565b5f5b8281101561150a578489015182556001820191506020850194506020810190506114e5565b868310156115275784890151611523601f891682611436565b8355505b6001600288020188555050505b505050505050565b5f819050919050565b5f61155f61155a6115558461153c565b61134e565b610a55565b9050919050565b61156f81611545565b82525050565b5f6060820190506115885f830186610b6b565b818103602083015261159a8185610d4a565b90506115a96040830184611566565b94935050505056fea26469706673582212207a785ccc4aa23bd9865507a5c36594d2ae7661987cf7abeeabb49a546d5564c964736f6c63430008190033",
  "immutableReferences": {},
  "source": "// SPDX-License-Identifier: MIT\r\npragma solidity ^0.8.0;\r\n\r\ncontract Voting {\r\n    struct Candidate {\r\n        uint id;\r\n        string name;\r\n        uint voteCount;\r\n    }\r\n\r\n    mapping(uint => Candidate) public candidates;\r\n    uint public candidatesCount;\r\n    mapping(address => bool) public hasVoted;  // Track if an account has voted\r\n    address public owner;\r\n    bool public votingActive;  // State variable to track if voting is active\r\n\r\n    event CandidateAdded(uint id, string name, uint voteCount);\r\n    event VoteCasted(uint candidateId, address voter);\r\n\r\n    modifier onlyOwner() {\r\n        require(msg.sender == owner, \"Only the contract owner can perform this action\");\r\n        _;\r\n    }\r\n\r\n    modifier whenVotingActive() {\r\n        require(votingActive, \"Voting is not active\");\r\n        _;\r\n    }\r\n\r\n    constructor() {\r\n        owner = msg.sender;  // Set the contract deployer as the owner\r\n        votingActive = true;  // Initially set voting as active\r\n    }\r\n\r\n    function addCandidate(string memory name) public onlyOwner {\r\n        candidatesCount += 1;\r\n        candidates[candidatesCount] = Candidate(candidatesCount, name, 0);\r\n        emit CandidateAdded(candidatesCount, name, 0);\r\n    }\r\n\r\n    function initializeCandidates() public onlyOwner {\r\n        addCandidate(\"Zara Hotak\");\r\n        addCandidate(\"Shahid Khan\");\r\n        addCandidate(\"Sara Aron\");\r\n    }\r\n\r\n    function getAllCandidates() public view returns (Candidate[] memory) {\r\n        Candidate[] memory allCandidates = new Candidate[](candidatesCount);\r\n        for (uint i = 1; i <= candidatesCount; i++) {\r\n            allCandidates[i - 1] = candidates[i];\r\n        }\r\n        return allCandidates;\r\n    }\r\n\r\n    function enableVoting() public onlyOwner {\r\n        votingActive = true;\r\n    }\r\n\r\n    function disableVoting() public onlyOwner {\r\n        votingActive = false;\r\n    }\r\n\r\n    function vote(uint candidateId) public whenVotingActive {\r\n        require(candidateId > 0 && candidateId <= candidatesCount, \"Invalid candidate ID: Out of range\");\r\n        require(!hasVoted[msg.sender], \"You have already voted.\");  // Check if the voter has already voted\r\n        candidates[candidateId].voteCount += 1;\r\n        hasVoted[msg.sender] = true;  // Mark this account as having voted\r\n        emit VoteCasted(candidateId, msg.sender);\r\n    }\r\n}\r\n",
  "sourcePath": "C:\\cwk\\voting_Dapp\\contracts\\voting.sol",
  "compiler": {
    "name": "solc",
    "version": "0.8.25+commit.b61c2a91.Emscripten.clang"
  },
  "schemaVersion": "3.4.16",
  "updatedAt": "2024-05-07T19:35:10.912Z",
  "devdoc": {
    "kind": "dev",
    "methods": {},
    "version": 1
  },
  "userdoc": {
    "kind": "user",
    "methods": {},
    "version": 1
  }
}